{
	"case01/Event.sol": {
		"Event": {
			"abi": [
				{
					"anonymous": false,
					"inputs": [
						{
							"indexed": true,
							"internalType": "address",
							"name": "from",
							"type": "address"
						},
						{
							"indexed": false,
							"internalType": "uint256",
							"name": "value",
							"type": "uint256"
						}
					],
					"name": "Log",
					"type": "event"
				},
				{
					"anonymous": false,
					"inputs": [
						{
							"indexed": true,
							"internalType": "address",
							"name": "_from",
							"type": "address"
						},
						{
							"indexed": true,
							"internalType": "address",
							"name": "_to",
							"type": "address"
						},
						{
							"indexed": false,
							"internalType": "string",
							"name": "message",
							"type": "string"
						}
					],
					"name": "Message",
					"type": "event"
				},
				{
					"anonymous": false,
					"inputs": [
						{
							"indexed": true,
							"internalType": "address",
							"name": "from",
							"type": "address"
						},
						{
							"indexed": false,
							"internalType": "uint256",
							"name": "val",
							"type": "uint256"
						}
					],
					"name": "indexedLog",
					"type": "event"
				},
				{
					"inputs": [
						{
							"internalType": "address",
							"name": "to",
							"type": "address"
						},
						{
							"internalType": "string",
							"name": "text",
							"type": "string"
						}
					],
					"name": "sendMessage",
					"outputs": [],
					"stateMutability": "nonpayable",
					"type": "function"
				},
				{
					"inputs": [
						{
							"internalType": "uint256",
							"name": "_value",
							"type": "uint256"
						}
					],
					"name": "testLog",
					"outputs": [],
					"stateMutability": "nonpayable",
					"type": "function"
				}
			],
			"devdoc": {
				"kind": "dev",
				"methods": {},
				"version": 1
			},
			"evm": {
				"assembly": "    /* \"case01/Event.sol\":59:582  contract Event{... */\n  mstore(0x40, 0x80)\n  callvalue\n  dup1\n  iszero\n  tag_1\n  jumpi\n  0x00\n  dup1\n  revert\ntag_1:\n  pop\n  dataSize(sub_0)\n  dup1\n  dataOffset(sub_0)\n  0x00\n  codecopy\n  0x00\n  return\nstop\n\nsub_0: assembly {\n        /* \"case01/Event.sol\":59:582  contract Event{... */\n      mstore(0x40, 0x80)\n      callvalue\n      dup1\n      iszero\n      tag_1\n      jumpi\n      0x00\n      dup1\n      revert\n    tag_1:\n      pop\n      jumpi(tag_2, lt(calldatasize, 0x04))\n      shr(0xe0, calldataload(0x00))\n      dup1\n      0x5ac1b16a\n      eq\n      tag_3\n      jumpi\n      dup1\n      0xde6f24bb\n      eq\n      tag_4\n      jumpi\n    tag_2:\n      0x00\n      dup1\n      revert\n        /* \"case01/Event.sol\":320:454  function testLog(uint _value) external {... */\n    tag_3:\n      tag_5\n      0x04\n      dup1\n      calldatasize\n      sub\n      dup2\n      add\n      swap1\n      tag_6\n      swap2\n      swap1\n      tag_7\n      jump\t// in\n    tag_6:\n      tag_8\n      jump\t// in\n    tag_5:\n      stop\n        /* \"case01/Event.sol\":460:575  function sendMessage(address to,string calldata text) external {... */\n    tag_4:\n      tag_9\n      0x04\n      dup1\n      calldatasize\n      sub\n      dup2\n      add\n      swap1\n      tag_10\n      swap2\n      swap1\n      tag_11\n      jump\t// in\n    tag_10:\n      tag_12\n      jump\t// in\n    tag_9:\n      stop\n        /* \"case01/Event.sol\":320:454  function testLog(uint _value) external {... */\n    tag_8:\n        /* \"case01/Event.sol\":379:389  msg.sender */\n      caller\n        /* \"case01/Event.sol\":375:398  Log(msg.sender, _value) */\n      0xffffffffffffffffffffffffffffffffffffffff\n      and\n      0xf950957d2407bed19dc99b718b46b4ce6090c05589006dfb86fd22c34865b23e\n        /* \"case01/Event.sol\":391:397  _value */\n      dup3\n        /* \"case01/Event.sol\":375:398  Log(msg.sender, _value) */\n      mload(0x40)\n      tag_14\n      swap2\n      swap1\n      tag_15\n      jump\t// in\n    tag_14:\n      mload(0x40)\n      dup1\n      swap2\n      sub\n      swap1\n      log2\n        /* \"case01/Event.sol\":427:437  msg.sender */\n      caller\n        /* \"case01/Event.sol\":416:446  indexedLog(msg.sender, _value) */\n      0xffffffffffffffffffffffffffffffffffffffff\n      and\n      0x498ad7cd4214d8ac7be140823454bc075f6e9c33cf81a1b50218e1307e2ea07f\n        /* \"case01/Event.sol\":439:445  _value */\n      dup3\n        /* \"case01/Event.sol\":416:446  indexedLog(msg.sender, _value) */\n      mload(0x40)\n      tag_16\n      swap2\n      swap1\n      tag_15\n      jump\t// in\n    tag_16:\n      mload(0x40)\n      dup1\n      swap2\n      sub\n      swap1\n      log2\n        /* \"case01/Event.sol\":320:454  function testLog(uint _value) external {... */\n      pop\n      jump\t// out\n        /* \"case01/Event.sol\":460:575  function sendMessage(address to,string calldata text) external {... */\n    tag_12:\n        /* \"case01/Event.sol\":559:561  to */\n      dup3\n        /* \"case01/Event.sol\":539:567  Message(msg.sender, to,text) */\n      0xffffffffffffffffffffffffffffffffffffffff\n      and\n        /* \"case01/Event.sol\":547:557  msg.sender */\n      caller\n        /* \"case01/Event.sol\":539:567  Message(msg.sender, to,text) */\n      0xffffffffffffffffffffffffffffffffffffffff\n      and\n      0xb3dbe9e9894ca2c11cb6c80bd0b0bccb9f5b41d612dbeeda0d5474de40b874fe\n        /* \"case01/Event.sol\":562:566  text */\n      dup5\n      dup5\n        /* \"case01/Event.sol\":539:567  Message(msg.sender, to,text) */\n      mload(0x40)\n      tag_18\n      swap3\n      swap2\n      swap1\n      tag_19\n      jump\t// in\n    tag_18:\n      mload(0x40)\n      dup1\n      swap2\n      sub\n      swap1\n      log3\n        /* \"case01/Event.sol\":460:575  function sendMessage(address to,string calldata text) external {... */\n      pop\n      pop\n      pop\n      jump\t// out\n        /* \"#utility.yul\":88:205   */\n    tag_21:\n        /* \"#utility.yul\":197:198   */\n      0x00\n        /* \"#utility.yul\":194:195   */\n      dup1\n        /* \"#utility.yul\":187:199   */\n      revert\n        /* \"#utility.yul\":211:328   */\n    tag_22:\n        /* \"#utility.yul\":320:321   */\n      0x00\n        /* \"#utility.yul\":317:318   */\n      dup1\n        /* \"#utility.yul\":310:322   */\n      revert\n        /* \"#utility.yul\":334:411   */\n    tag_23:\n        /* \"#utility.yul\":371:378   */\n      0x00\n        /* \"#utility.yul\":400:405   */\n      dup2\n        /* \"#utility.yul\":389:405   */\n      swap1\n      pop\n        /* \"#utility.yul\":334:411   */\n      swap2\n      swap1\n      pop\n      jump\t// out\n        /* \"#utility.yul\":417:539   */\n    tag_24:\n        /* \"#utility.yul\":490:514   */\n      tag_45\n        /* \"#utility.yul\":508:513   */\n      dup2\n        /* \"#utility.yul\":490:514   */\n      tag_23\n      jump\t// in\n    tag_45:\n        /* \"#utility.yul\":483:488   */\n      dup2\n        /* \"#utility.yul\":480:515   */\n      eq\n        /* \"#utility.yul\":470:533   */\n      tag_46\n      jumpi\n        /* \"#utility.yul\":529:530   */\n      0x00\n        /* \"#utility.yul\":526:527   */\n      dup1\n        /* \"#utility.yul\":519:531   */\n      revert\n        /* \"#utility.yul\":470:533   */\n    tag_46:\n        /* \"#utility.yul\":417:539   */\n      pop\n      jump\t// out\n        /* \"#utility.yul\":545:684   */\n    tag_25:\n        /* \"#utility.yul\":591:596   */\n      0x00\n        /* \"#utility.yul\":629:635   */\n      dup2\n        /* \"#utility.yul\":616:636   */\n      calldataload\n        /* \"#utility.yul\":607:636   */\n      swap1\n      pop\n        /* \"#utility.yul\":645:678   */\n      tag_48\n        /* \"#utility.yul\":672:677   */\n      dup2\n        /* \"#utility.yul\":645:678   */\n      tag_24\n      jump\t// in\n    tag_48:\n        /* \"#utility.yul\":545:684   */\n      swap3\n      swap2\n      pop\n      pop\n      jump\t// out\n        /* \"#utility.yul\":690:1019   */\n    tag_7:\n        /* \"#utility.yul\":749:755   */\n      0x00\n        /* \"#utility.yul\":798:800   */\n      0x20\n        /* \"#utility.yul\":786:795   */\n      dup3\n        /* \"#utility.yul\":777:784   */\n      dup5\n        /* \"#utility.yul\":773:796   */\n      sub\n        /* \"#utility.yul\":769:801   */\n      slt\n        /* \"#utility.yul\":766:885   */\n      iszero\n      tag_50\n      jumpi\n        /* \"#utility.yul\":804:883   */\n      tag_51\n      tag_21\n      jump\t// in\n    tag_51:\n        /* \"#utility.yul\":766:885   */\n    tag_50:\n        /* \"#utility.yul\":924:925   */\n      0x00\n        /* \"#utility.yul\":949:1002   */\n      tag_52\n        /* \"#utility.yul\":994:1001   */\n      dup5\n        /* \"#utility.yul\":985:991   */\n      dup3\n        /* \"#utility.yul\":974:983   */\n      dup6\n        /* \"#utility.yul\":970:992   */\n      add\n        /* \"#utility.yul\":949:1002   */\n      tag_25\n      jump\t// in\n    tag_52:\n        /* \"#utility.yul\":939:1002   */\n      swap2\n      pop\n        /* \"#utility.yul\":895:1012   */\n      pop\n        /* \"#utility.yul\":690:1019   */\n      swap3\n      swap2\n      pop\n      pop\n      jump\t// out\n        /* \"#utility.yul\":1025:1151   */\n    tag_26:\n        /* \"#utility.yul\":1062:1069   */\n      0x00\n        /* \"#utility.yul\":1102:1144   */\n      0xffffffffffffffffffffffffffffffffffffffff\n        /* \"#utility.yul\":1095:1100   */\n      dup3\n        /* \"#utility.yul\":1091:1145   */\n      and\n        /* \"#utility.yul\":1080:1145   */\n      swap1\n      pop\n        /* \"#utility.yul\":1025:1151   */\n      swap2\n      swap1\n      pop\n      jump\t// out\n        /* \"#utility.yul\":1157:1253   */\n    tag_27:\n        /* \"#utility.yul\":1194:1201   */\n      0x00\n        /* \"#utility.yul\":1223:1247   */\n      tag_55\n        /* \"#utility.yul\":1241:1246   */\n      dup3\n        /* \"#utility.yul\":1223:1247   */\n      tag_26\n      jump\t// in\n    tag_55:\n        /* \"#utility.yul\":1212:1247   */\n      swap1\n      pop\n        /* \"#utility.yul\":1157:1253   */\n      swap2\n      swap1\n      pop\n      jump\t// out\n        /* \"#utility.yul\":1259:1381   */\n    tag_28:\n        /* \"#utility.yul\":1332:1356   */\n      tag_57\n        /* \"#utility.yul\":1350:1355   */\n      dup2\n        /* \"#utility.yul\":1332:1356   */\n      tag_27\n      jump\t// in\n    tag_57:\n        /* \"#utility.yul\":1325:1330   */\n      dup2\n        /* \"#utility.yul\":1322:1357   */\n      eq\n        /* \"#utility.yul\":1312:1375   */\n      tag_58\n      jumpi\n        /* \"#utility.yul\":1371:1372   */\n      0x00\n        /* \"#utility.yul\":1368:1369   */\n      dup1\n        /* \"#utility.yul\":1361:1373   */\n      revert\n        /* \"#utility.yul\":1312:1375   */\n    tag_58:\n        /* \"#utility.yul\":1259:1381   */\n      pop\n      jump\t// out\n        /* \"#utility.yul\":1387:1526   */\n    tag_29:\n        /* \"#utility.yul\":1433:1438   */\n      0x00\n        /* \"#utility.yul\":1471:1477   */\n      dup2\n        /* \"#utility.yul\":1458:1478   */\n      calldataload\n        /* \"#utility.yul\":1449:1478   */\n      swap1\n      pop\n        /* \"#utility.yul\":1487:1520   */\n      tag_60\n        /* \"#utility.yul\":1514:1519   */\n      dup2\n        /* \"#utility.yul\":1487:1520   */\n      tag_28\n      jump\t// in\n    tag_60:\n        /* \"#utility.yul\":1387:1526   */\n      swap3\n      swap2\n      pop\n      pop\n      jump\t// out\n        /* \"#utility.yul\":1532:1649   */\n    tag_30:\n        /* \"#utility.yul\":1641:1642   */\n      0x00\n        /* \"#utility.yul\":1638:1639   */\n      dup1\n        /* \"#utility.yul\":1631:1643   */\n      revert\n        /* \"#utility.yul\":1655:1772   */\n    tag_31:\n        /* \"#utility.yul\":1764:1765   */\n      0x00\n        /* \"#utility.yul\":1761:1762   */\n      dup1\n        /* \"#utility.yul\":1754:1766   */\n      revert\n        /* \"#utility.yul\":1778:1895   */\n    tag_32:\n        /* \"#utility.yul\":1887:1888   */\n      0x00\n        /* \"#utility.yul\":1884:1885   */\n      dup1\n        /* \"#utility.yul\":1877:1889   */\n      revert\n        /* \"#utility.yul\":1915:2468   */\n    tag_33:\n        /* \"#utility.yul\":1973:1981   */\n      0x00\n        /* \"#utility.yul\":1983:1989   */\n      dup1\n        /* \"#utility.yul\":2033:2036   */\n      dup4\n        /* \"#utility.yul\":2026:2030   */\n      0x1f\n        /* \"#utility.yul\":2018:2024   */\n      dup5\n        /* \"#utility.yul\":2014:2031   */\n      add\n        /* \"#utility.yul\":2010:2037   */\n      slt\n        /* \"#utility.yul\":2000:2122   */\n      tag_65\n      jumpi\n        /* \"#utility.yul\":2041:2120   */\n      tag_66\n      tag_30\n      jump\t// in\n    tag_66:\n        /* \"#utility.yul\":2000:2122   */\n    tag_65:\n        /* \"#utility.yul\":2154:2160   */\n      dup3\n        /* \"#utility.yul\":2141:2161   */\n      calldataload\n        /* \"#utility.yul\":2131:2161   */\n      swap1\n      pop\n        /* \"#utility.yul\":2184:2202   */\n      0xffffffffffffffff\n        /* \"#utility.yul\":2176:2182   */\n      dup2\n        /* \"#utility.yul\":2173:2203   */\n      gt\n        /* \"#utility.yul\":2170:2287   */\n      iszero\n      tag_67\n      jumpi\n        /* \"#utility.yul\":2206:2285   */\n      tag_68\n      tag_31\n      jump\t// in\n    tag_68:\n        /* \"#utility.yul\":2170:2287   */\n    tag_67:\n        /* \"#utility.yul\":2320:2324   */\n      0x20\n        /* \"#utility.yul\":2312:2318   */\n      dup4\n        /* \"#utility.yul\":2308:2325   */\n      add\n        /* \"#utility.yul\":2296:2325   */\n      swap2\n      pop\n        /* \"#utility.yul\":2374:2377   */\n      dup4\n        /* \"#utility.yul\":2366:2370   */\n      0x01\n        /* \"#utility.yul\":2358:2364   */\n      dup3\n        /* \"#utility.yul\":2354:2371   */\n      mul\n        /* \"#utility.yul\":2344:2352   */\n      dup4\n        /* \"#utility.yul\":2340:2372   */\n      add\n        /* \"#utility.yul\":2337:2378   */\n      gt\n        /* \"#utility.yul\":2334:2462   */\n      iszero\n      tag_69\n      jumpi\n        /* \"#utility.yul\":2381:2460   */\n      tag_70\n      tag_32\n      jump\t// in\n    tag_70:\n        /* \"#utility.yul\":2334:2462   */\n    tag_69:\n        /* \"#utility.yul\":1915:2468   */\n      swap3\n      pop\n      swap3\n      swap1\n      pop\n      jump\t// out\n        /* \"#utility.yul\":2474:3148   */\n    tag_11:\n        /* \"#utility.yul\":2554:2560   */\n      0x00\n        /* \"#utility.yul\":2562:2568   */\n      dup1\n        /* \"#utility.yul\":2570:2576   */\n      0x00\n        /* \"#utility.yul\":2619:2621   */\n      0x40\n        /* \"#utility.yul\":2607:2616   */\n      dup5\n        /* \"#utility.yul\":2598:2605   */\n      dup7\n        /* \"#utility.yul\":2594:2617   */\n      sub\n        /* \"#utility.yul\":2590:2622   */\n      slt\n        /* \"#utility.yul\":2587:2706   */\n      iszero\n      tag_72\n      jumpi\n        /* \"#utility.yul\":2625:2704   */\n      tag_73\n      tag_21\n      jump\t// in\n    tag_73:\n        /* \"#utility.yul\":2587:2706   */\n    tag_72:\n        /* \"#utility.yul\":2745:2746   */\n      0x00\n        /* \"#utility.yul\":2770:2823   */\n      tag_74\n        /* \"#utility.yul\":2815:2822   */\n      dup7\n        /* \"#utility.yul\":2806:2812   */\n      dup3\n        /* \"#utility.yul\":2795:2804   */\n      dup8\n        /* \"#utility.yul\":2791:2813   */\n      add\n        /* \"#utility.yul\":2770:2823   */\n      tag_29\n      jump\t// in\n    tag_74:\n        /* \"#utility.yul\":2760:2823   */\n      swap4\n      pop\n        /* \"#utility.yul\":2716:2833   */\n      pop\n        /* \"#utility.yul\":2900:2902   */\n      0x20\n        /* \"#utility.yul\":2889:2898   */\n      dup5\n        /* \"#utility.yul\":2885:2903   */\n      add\n        /* \"#utility.yul\":2872:2904   */\n      calldataload\n        /* \"#utility.yul\":2931:2949   */\n      0xffffffffffffffff\n        /* \"#utility.yul\":2923:2929   */\n      dup2\n        /* \"#utility.yul\":2920:2950   */\n      gt\n        /* \"#utility.yul\":2917:3034   */\n      iszero\n      tag_75\n      jumpi\n        /* \"#utility.yul\":2953:3032   */\n      tag_76\n      tag_22\n      jump\t// in\n    tag_76:\n        /* \"#utility.yul\":2917:3034   */\n    tag_75:\n        /* \"#utility.yul\":3066:3131   */\n      tag_77\n        /* \"#utility.yul\":3123:3130   */\n      dup7\n        /* \"#utility.yul\":3114:3120   */\n      dup3\n        /* \"#utility.yul\":3103:3112   */\n      dup8\n        /* \"#utility.yul\":3099:3121   */\n      add\n        /* \"#utility.yul\":3066:3131   */\n      tag_33\n      jump\t// in\n    tag_77:\n        /* \"#utility.yul\":3048:3131   */\n      swap3\n      pop\n      swap3\n      pop\n        /* \"#utility.yul\":2843:3141   */\n      pop\n        /* \"#utility.yul\":2474:3148   */\n      swap3\n      pop\n      swap3\n      pop\n      swap3\n      jump\t// out\n        /* \"#utility.yul\":3154:3272   */\n    tag_34:\n        /* \"#utility.yul\":3241:3265   */\n      tag_79\n        /* \"#utility.yul\":3259:3264   */\n      dup2\n        /* \"#utility.yul\":3241:3265   */\n      tag_23\n      jump\t// in\n    tag_79:\n        /* \"#utility.yul\":3236:3239   */\n      dup3\n        /* \"#utility.yul\":3229:3266   */\n      mstore\n        /* \"#utility.yul\":3154:3272   */\n      pop\n      pop\n      jump\t// out\n        /* \"#utility.yul\":3278:3500   */\n    tag_15:\n        /* \"#utility.yul\":3371:3375   */\n      0x00\n        /* \"#utility.yul\":3409:3411   */\n      0x20\n        /* \"#utility.yul\":3398:3407   */\n      dup3\n        /* \"#utility.yul\":3394:3412   */\n      add\n        /* \"#utility.yul\":3386:3412   */\n      swap1\n      pop\n        /* \"#utility.yul\":3422:3493   */\n      tag_81\n        /* \"#utility.yul\":3490:3491   */\n      0x00\n        /* \"#utility.yul\":3479:3488   */\n      dup4\n        /* \"#utility.yul\":3475:3492   */\n      add\n        /* \"#utility.yul\":3466:3472   */\n      dup5\n        /* \"#utility.yul\":3422:3493   */\n      tag_34\n      jump\t// in\n    tag_81:\n        /* \"#utility.yul\":3278:3500   */\n      swap3\n      swap2\n      pop\n      pop\n      jump\t// out\n        /* \"#utility.yul\":3506:3675   */\n    tag_35:\n        /* \"#utility.yul\":3590:3601   */\n      0x00\n        /* \"#utility.yul\":3624:3630   */\n      dup3\n        /* \"#utility.yul\":3619:3622   */\n      dup3\n        /* \"#utility.yul\":3612:3631   */\n      mstore\n        /* \"#utility.yul\":3664:3668   */\n      0x20\n        /* \"#utility.yul\":3659:3662   */\n      dup3\n        /* \"#utility.yul\":3655:3669   */\n      add\n        /* \"#utility.yul\":3640:3669   */\n      swap1\n      pop\n        /* \"#utility.yul\":3506:3675   */\n      swap3\n      swap2\n      pop\n      pop\n      jump\t// out\n        /* \"#utility.yul\":3681:3829   */\n    tag_36:\n        /* \"#utility.yul\":3779:3785   */\n      dup3\n        /* \"#utility.yul\":3774:3777   */\n      dup2\n        /* \"#utility.yul\":3769:3772   */\n      dup4\n        /* \"#utility.yul\":3756:3786   */\n      calldatacopy\n        /* \"#utility.yul\":3820:3821   */\n      0x00\n        /* \"#utility.yul\":3811:3817   */\n      dup4\n        /* \"#utility.yul\":3806:3809   */\n      dup4\n        /* \"#utility.yul\":3802:3818   */\n      add\n        /* \"#utility.yul\":3795:3822   */\n      mstore\n        /* \"#utility.yul\":3681:3829   */\n      pop\n      pop\n      pop\n      jump\t// out\n        /* \"#utility.yul\":3835:3937   */\n    tag_37:\n        /* \"#utility.yul\":3876:3882   */\n      0x00\n        /* \"#utility.yul\":3927:3929   */\n      0x1f\n        /* \"#utility.yul\":3923:3930   */\n      not\n        /* \"#utility.yul\":3918:3920   */\n      0x1f\n        /* \"#utility.yul\":3911:3916   */\n      dup4\n        /* \"#utility.yul\":3907:3921   */\n      add\n        /* \"#utility.yul\":3903:3931   */\n      and\n        /* \"#utility.yul\":3893:3931   */\n      swap1\n      pop\n        /* \"#utility.yul\":3835:3937   */\n      swap2\n      swap1\n      pop\n      jump\t// out\n        /* \"#utility.yul\":3967:4284   */\n    tag_38:\n        /* \"#utility.yul\":4065:4068   */\n      0x00\n        /* \"#utility.yul\":4086:4157   */\n      tag_86\n        /* \"#utility.yul\":4150:4156   */\n      dup4\n        /* \"#utility.yul\":4145:4148   */\n      dup6\n        /* \"#utility.yul\":4086:4157   */\n      tag_35\n      jump\t// in\n    tag_86:\n        /* \"#utility.yul\":4079:4157   */\n      swap4\n      pop\n        /* \"#utility.yul\":4167:4223   */\n      tag_87\n        /* \"#utility.yul\":4216:4222   */\n      dup4\n        /* \"#utility.yul\":4211:4214   */\n      dup6\n        /* \"#utility.yul\":4204:4209   */\n      dup5\n        /* \"#utility.yul\":4167:4223   */\n      tag_36\n      jump\t// in\n    tag_87:\n        /* \"#utility.yul\":4248:4277   */\n      tag_88\n        /* \"#utility.yul\":4270:4276   */\n      dup4\n        /* \"#utility.yul\":4248:4277   */\n      tag_37\n      jump\t// in\n    tag_88:\n        /* \"#utility.yul\":4243:4246   */\n      dup5\n        /* \"#utility.yul\":4239:4278   */\n      add\n        /* \"#utility.yul\":4232:4278   */\n      swap1\n      pop\n        /* \"#utility.yul\":3967:4284   */\n      swap4\n      swap3\n      pop\n      pop\n      pop\n      jump\t// out\n        /* \"#utility.yul\":4290:4623   */\n    tag_19:\n        /* \"#utility.yul\":4413:4417   */\n      0x00\n        /* \"#utility.yul\":4451:4453   */\n      0x20\n        /* \"#utility.yul\":4440:4449   */\n      dup3\n        /* \"#utility.yul\":4436:4454   */\n      add\n        /* \"#utility.yul\":4428:4454   */\n      swap1\n      pop\n        /* \"#utility.yul\":4500:4509   */\n      dup2\n        /* \"#utility.yul\":4494:4498   */\n      dup2\n        /* \"#utility.yul\":4490:4510   */\n      sub\n        /* \"#utility.yul\":4486:4487   */\n      0x00\n        /* \"#utility.yul\":4475:4484   */\n      dup4\n        /* \"#utility.yul\":4471:4488   */\n      add\n        /* \"#utility.yul\":4464:4511   */\n      mstore\n        /* \"#utility.yul\":4528:4616   */\n      tag_90\n        /* \"#utility.yul\":4611:4615   */\n      dup2\n        /* \"#utility.yul\":4602:4608   */\n      dup5\n        /* \"#utility.yul\":4594:4600   */\n      dup7\n        /* \"#utility.yul\":4528:4616   */\n      tag_38\n      jump\t// in\n    tag_90:\n        /* \"#utility.yul\":4520:4616   */\n      swap1\n      pop\n        /* \"#utility.yul\":4290:4623   */\n      swap4\n      swap3\n      pop\n      pop\n      pop\n      jump\t// out\n\n    auxdata: 0xa26469706673582212202afc17b4263d79d8b15efa342d4df0ad1fc307aa9aefd3610b9c95d570bea6cf64736f6c634300081a0033\n}\n",
				"bytecode": {
					"linkReferences": {},
					"object": "6080604052348015600e575f80fd5b506103d38061001c5f395ff3fe608060405234801561000f575f80fd5b5060043610610034575f3560e01c80635ac1b16a14610038578063de6f24bb14610054575b5f80fd5b610052600480360381019061004d91906101b6565b610070565b005b61006e6004803603810190610069919061029c565b61010f565b005b3373ffffffffffffffffffffffffffffffffffffffff167ff950957d2407bed19dc99b718b46b4ce6090c05589006dfb86fd22c34865b23e826040516100b69190610308565b60405180910390a23373ffffffffffffffffffffffffffffffffffffffff167f498ad7cd4214d8ac7be140823454bc075f6e9c33cf81a1b50218e1307e2ea07f826040516101049190610308565b60405180910390a250565b8273ffffffffffffffffffffffffffffffffffffffff163373ffffffffffffffffffffffffffffffffffffffff167fb3dbe9e9894ca2c11cb6c80bd0b0bccb9f5b41d612dbeeda0d5474de40b874fe848460405161016e92919061037b565b60405180910390a3505050565b5f80fd5b5f80fd5b5f819050919050565b61019581610183565b811461019f575f80fd5b50565b5f813590506101b08161018c565b92915050565b5f602082840312156101cb576101ca61017b565b5b5f6101d8848285016101a2565b91505092915050565b5f73ffffffffffffffffffffffffffffffffffffffff82169050919050565b5f61020a826101e1565b9050919050565b61021a81610200565b8114610224575f80fd5b50565b5f8135905061023581610211565b92915050565b5f80fd5b5f80fd5b5f80fd5b5f8083601f84011261025c5761025b61023b565b5b8235905067ffffffffffffffff8111156102795761027861023f565b5b60208301915083600182028301111561029557610294610243565b5b9250929050565b5f805f604084860312156102b3576102b261017b565b5b5f6102c086828701610227565b935050602084013567ffffffffffffffff8111156102e1576102e061017f565b5b6102ed86828701610247565b92509250509250925092565b61030281610183565b82525050565b5f60208201905061031b5f8301846102f9565b92915050565b5f82825260208201905092915050565b828183375f83830152505050565b5f601f19601f8301169050919050565b5f61035a8385610321565b9350610367838584610331565b6103708361033f565b840190509392505050565b5f6020820190508181035f83015261039481848661034f565b9050939250505056fea26469706673582212202afc17b4263d79d8b15efa342d4df0ad1fc307aa9aefd3610b9c95d570bea6cf64736f6c634300081a0033",
					"opcodes": "PUSH1 0x80 PUSH1 0x40 MSTORE CALLVALUE DUP1 ISZERO PUSH1 0xE JUMPI PUSH0 DUP1 REVERT JUMPDEST POP PUSH2 0x3D3 DUP1 PUSH2 0x1C PUSH0 CODECOPY PUSH0 RETURN INVALID PUSH1 0x80 PUSH1 0x40 MSTORE CALLVALUE DUP1 ISZERO PUSH2 0xF JUMPI PUSH0 DUP1 REVERT JUMPDEST POP PUSH1 0x4 CALLDATASIZE LT PUSH2 0x34 JUMPI PUSH0 CALLDATALOAD PUSH1 0xE0 SHR DUP1 PUSH4 0x5AC1B16A EQ PUSH2 0x38 JUMPI DUP1 PUSH4 0xDE6F24BB EQ PUSH2 0x54 JUMPI JUMPDEST PUSH0 DUP1 REVERT JUMPDEST PUSH2 0x52 PUSH1 0x4 DUP1 CALLDATASIZE SUB DUP2 ADD SWAP1 PUSH2 0x4D SWAP2 SWAP1 PUSH2 0x1B6 JUMP JUMPDEST PUSH2 0x70 JUMP JUMPDEST STOP JUMPDEST PUSH2 0x6E PUSH1 0x4 DUP1 CALLDATASIZE SUB DUP2 ADD SWAP1 PUSH2 0x69 SWAP2 SWAP1 PUSH2 0x29C JUMP JUMPDEST PUSH2 0x10F JUMP JUMPDEST STOP JUMPDEST CALLER PUSH20 0xFFFFFFFFFFFFFFFFFFFFFFFFFFFFFFFFFFFFFFFF AND PUSH32 0xF950957D2407BED19DC99B718B46B4CE6090C05589006DFB86FD22C34865B23E DUP3 PUSH1 0x40 MLOAD PUSH2 0xB6 SWAP2 SWAP1 PUSH2 0x308 JUMP JUMPDEST PUSH1 0x40 MLOAD DUP1 SWAP2 SUB SWAP1 LOG2 CALLER PUSH20 0xFFFFFFFFFFFFFFFFFFFFFFFFFFFFFFFFFFFFFFFF AND PUSH32 0x498AD7CD4214D8AC7BE140823454BC075F6E9C33CF81A1B50218E1307E2EA07F DUP3 PUSH1 0x40 MLOAD PUSH2 0x104 SWAP2 SWAP1 PUSH2 0x308 JUMP JUMPDEST PUSH1 0x40 MLOAD DUP1 SWAP2 SUB SWAP1 LOG2 POP JUMP JUMPDEST DUP3 PUSH20 0xFFFFFFFFFFFFFFFFFFFFFFFFFFFFFFFFFFFFFFFF AND CALLER PUSH20 0xFFFFFFFFFFFFFFFFFFFFFFFFFFFFFFFFFFFFFFFF AND PUSH32 0xB3DBE9E9894CA2C11CB6C80BD0B0BCCB9F5B41D612DBEEDA0D5474DE40B874FE DUP5 DUP5 PUSH1 0x40 MLOAD PUSH2 0x16E SWAP3 SWAP2 SWAP1 PUSH2 0x37B JUMP JUMPDEST PUSH1 0x40 MLOAD DUP1 SWAP2 SUB SWAP1 LOG3 POP POP POP JUMP JUMPDEST PUSH0 DUP1 REVERT JUMPDEST PUSH0 DUP1 REVERT JUMPDEST PUSH0 DUP2 SWAP1 POP SWAP2 SWAP1 POP JUMP JUMPDEST PUSH2 0x195 DUP2 PUSH2 0x183 JUMP JUMPDEST DUP2 EQ PUSH2 0x19F JUMPI PUSH0 DUP1 REVERT JUMPDEST POP JUMP JUMPDEST PUSH0 DUP2 CALLDATALOAD SWAP1 POP PUSH2 0x1B0 DUP2 PUSH2 0x18C JUMP JUMPDEST SWAP3 SWAP2 POP POP JUMP JUMPDEST PUSH0 PUSH1 0x20 DUP3 DUP5 SUB SLT ISZERO PUSH2 0x1CB JUMPI PUSH2 0x1CA PUSH2 0x17B JUMP JUMPDEST JUMPDEST PUSH0 PUSH2 0x1D8 DUP5 DUP3 DUP6 ADD PUSH2 0x1A2 JUMP JUMPDEST SWAP2 POP POP SWAP3 SWAP2 POP POP JUMP JUMPDEST PUSH0 PUSH20 0xFFFFFFFFFFFFFFFFFFFFFFFFFFFFFFFFFFFFFFFF DUP3 AND SWAP1 POP SWAP2 SWAP1 POP JUMP JUMPDEST PUSH0 PUSH2 0x20A DUP3 PUSH2 0x1E1 JUMP JUMPDEST SWAP1 POP SWAP2 SWAP1 POP JUMP JUMPDEST PUSH2 0x21A DUP2 PUSH2 0x200 JUMP JUMPDEST DUP2 EQ PUSH2 0x224 JUMPI PUSH0 DUP1 REVERT JUMPDEST POP JUMP JUMPDEST PUSH0 DUP2 CALLDATALOAD SWAP1 POP PUSH2 0x235 DUP2 PUSH2 0x211 JUMP JUMPDEST SWAP3 SWAP2 POP POP JUMP JUMPDEST PUSH0 DUP1 REVERT JUMPDEST PUSH0 DUP1 REVERT JUMPDEST PUSH0 DUP1 REVERT JUMPDEST PUSH0 DUP1 DUP4 PUSH1 0x1F DUP5 ADD SLT PUSH2 0x25C JUMPI PUSH2 0x25B PUSH2 0x23B JUMP JUMPDEST JUMPDEST DUP3 CALLDATALOAD SWAP1 POP PUSH8 0xFFFFFFFFFFFFFFFF DUP2 GT ISZERO PUSH2 0x279 JUMPI PUSH2 0x278 PUSH2 0x23F JUMP JUMPDEST JUMPDEST PUSH1 0x20 DUP4 ADD SWAP2 POP DUP4 PUSH1 0x1 DUP3 MUL DUP4 ADD GT ISZERO PUSH2 0x295 JUMPI PUSH2 0x294 PUSH2 0x243 JUMP JUMPDEST JUMPDEST SWAP3 POP SWAP3 SWAP1 POP JUMP JUMPDEST PUSH0 DUP1 PUSH0 PUSH1 0x40 DUP5 DUP7 SUB SLT ISZERO PUSH2 0x2B3 JUMPI PUSH2 0x2B2 PUSH2 0x17B JUMP JUMPDEST JUMPDEST PUSH0 PUSH2 0x2C0 DUP7 DUP3 DUP8 ADD PUSH2 0x227 JUMP JUMPDEST SWAP4 POP POP PUSH1 0x20 DUP5 ADD CALLDATALOAD PUSH8 0xFFFFFFFFFFFFFFFF DUP2 GT ISZERO PUSH2 0x2E1 JUMPI PUSH2 0x2E0 PUSH2 0x17F JUMP JUMPDEST JUMPDEST PUSH2 0x2ED DUP7 DUP3 DUP8 ADD PUSH2 0x247 JUMP JUMPDEST SWAP3 POP SWAP3 POP POP SWAP3 POP SWAP3 POP SWAP3 JUMP JUMPDEST PUSH2 0x302 DUP2 PUSH2 0x183 JUMP JUMPDEST DUP3 MSTORE POP POP JUMP JUMPDEST PUSH0 PUSH1 0x20 DUP3 ADD SWAP1 POP PUSH2 0x31B PUSH0 DUP4 ADD DUP5 PUSH2 0x2F9 JUMP JUMPDEST SWAP3 SWAP2 POP POP JUMP JUMPDEST PUSH0 DUP3 DUP3 MSTORE PUSH1 0x20 DUP3 ADD SWAP1 POP SWAP3 SWAP2 POP POP JUMP JUMPDEST DUP3 DUP2 DUP4 CALLDATACOPY PUSH0 DUP4 DUP4 ADD MSTORE POP POP POP JUMP JUMPDEST PUSH0 PUSH1 0x1F NOT PUSH1 0x1F DUP4 ADD AND SWAP1 POP SWAP2 SWAP1 POP JUMP JUMPDEST PUSH0 PUSH2 0x35A DUP4 DUP6 PUSH2 0x321 JUMP JUMPDEST SWAP4 POP PUSH2 0x367 DUP4 DUP6 DUP5 PUSH2 0x331 JUMP JUMPDEST PUSH2 0x370 DUP4 PUSH2 0x33F JUMP JUMPDEST DUP5 ADD SWAP1 POP SWAP4 SWAP3 POP POP POP JUMP JUMPDEST PUSH0 PUSH1 0x20 DUP3 ADD SWAP1 POP DUP2 DUP2 SUB PUSH0 DUP4 ADD MSTORE PUSH2 0x394 DUP2 DUP5 DUP7 PUSH2 0x34F JUMP JUMPDEST SWAP1 POP SWAP4 SWAP3 POP POP POP JUMP INVALID LOG2 PUSH5 0x6970667358 0x22 SLT KECCAK256 0x2A 0xFC OR 0xB4 0x26 RETURNDATASIZE PUSH26 0xD8B15EFA342D4DF0AD1FC307AA9AEFD3610B9C95D570BEA6CF64 PUSH20 0x6F6C634300081A00330000000000000000000000 "
				},
				"gasEstimates": {
					"creation": {
						"codeDepositCost": "195800",
						"executionCost": "236",
						"totalCost": "196036"
					},
					"external": {
						"sendMessage(address,string)": "infinite",
						"testLog(uint256)": "infinite"
					}
				},
				"methodIdentifiers": {
					"sendMessage(address,string)": "de6f24bb",
					"testLog(uint256)": "5ac1b16a"
				}
			},
			"storageLayout": {
				"storage": [],
				"types": null
			},
			"userdoc": {
				"kind": "user",
				"methods": {},
				"version": 1
			}
		}
	}
}